{
  "contractName": "CinoCoin",
  "abi": [
    {
      "constant": true,
      "inputs": [],
      "name": "totalSupply",
      "outputs": [
        {
          "name": "",
          "type": "uint256"
        }
      ],
      "payable": false,
      "stateMutability": "view",
      "type": "function"
    },
    {
      "inputs": [],
      "payable": false,
      "stateMutability": "nonpayable",
      "type": "constructor"
    }
  ],
  "bytecode": "0x608060405234801561001057600080fd5b50620f4240600081905550609e806100296000396000f300608060405260043610603f576000357c0100000000000000000000000000000000000000000000000000000000900463ffffffff16806318160ddd146044575b600080fd5b348015604f57600080fd5b506056606c565b6040518082815260200191505060405180910390f35b600054815600a165627a7a72305820a07a91fd314eb9b9221f7c3361e098aa90c83ba3ca4376897dca0911835da0230029",
  "source": "pragma solidity ^0.4.23;\n\ncontract CinoCoin {\n  // Constructor\n  // Set the total number of tokens\n  // Read the total number of tokens\n  uint256 public totalSupply;\n\n  function CinoCoin () public {\n    totalSupply = 1000000;\n  }\n}\n",
  "sourcePath": "/Users/cinojaeger/token_sale/contracts/CinoCoin.sol",
  "compiler": {
    "name": "solc",
    "version": "0.4.24+commit.e67f0147.Emscripten.clang"
  },
  "schemaVersion": "2.0.1",
  "updatedAt": "2018-11-15T09:07:09.683Z"
}